:100000000C9472000C947E000C947E000C947E0084
:100010000C947E000C947E000C947E000C947E0068
:100020000C947E000C947E000C947E000C947E0058
:100030000C947E000C947E000C947E000C947E0048
:100040000C947E000C9412010C947E000C947E00A3
:100050000C947E000C947E000C947E000C947E0028
:100060000C947E000C947E000C947E000C947E0018
:100070000C947E000C947E000C947E000C947E0008
:100080000C947E000C947E000C947E000C947E00F8
:100090000C947E000C947E000C947E000C947E00E8
:1000A0000C947E000C947E000C947E000C947E00D8
:1000B0000C947E000C947E000C947E000C947E00C8
:1000C0000C947E000C947E000C947E000C947E00B8
:1000D0000C947E000C947E000C947E000C947E00A8
:1000E0000C947E0011241FBECFEFD1E2DEBFCDBF46
:1000F00000E00CBF0E94C6000C941E010C9400008E
:1001000000E812E000936100109361000895389AAE
:100110004098399A41983A9A42983B9A43983C9A27
:1001200044983D9A45983E9A46983F9A4798239A14
:100130002B980895109100022B9A10350CF4479AD1
:100140004798479A163410F0469805C0469A1C33D3
:1001500010F0459805C0459A123310F0449805C038
:10016000449A183210F0439805C0439A1E3110F09B
:10017000429805C0429A143110F0419805C0419A46
:100180001A3010F0409801C0409A08950E94D6009D
:100190000E94CB00FFCF009101020130E1F70E94E5
:1001A000E4000E949A0010920102F5CF0E948000A4
:1001B0000E9400010E94DF000E9487000895209A9B
:1001C0002198229A2A9808952998289814E00E9444
:1001D000FD00289A14E10E94FD002898199BFECF8B
:1001E0002A9A22272395222329F01CE40E94FD004D
:1001F0001999F8CF2093000208951A95F1F7089500
:10020000009181000D60009381000AEF0093880047
:1002100000E00093890000916F00026000936F007E
:10022000789408950F930F920FB60F9201E0009308
:1002300001020F900FBE0F900F911895F894FFCF09
:020240000800B4
:00000001FF
