:100000000C9472000C947E000C947E000C947E0084
:100010000C947E000C947E000C947E000C947E0068
:100020000C947E000C947E000C947E000C947E0058
:100030000C947E000C947E000C947E000C947E0048
:100040000C947E000C94E6000C947E000C947E00D0
:100050000C947E000C947E000C947E000C947E0028
:100060000C947E000C947E000C947E000C947E0018
:100070000C947E000C947E000C947E000C947E0008
:100080000C947E000C947E000C947E000C947E00F8
:100090000C947E000C947E000C947E000C947E00E8
:1000A0000C947E000C947E000C947E000C947E00D8
:1000B0000C947E000C947E000C947E000C947E00C8
:1000C0000C947E000C947E000C947E000C947E00B8
:1000D0000C947E000C947E000C947E000C947E00A8
:1000E0000C947E0011241FBECFEFD1E2DEBFCDBF46
:1000F00000E00CBF0E9497000C94F2000C940000EA
:1001000000E812E000936100109361000895389AAE
:1001100040983A9A42983C9A449808951091000267
:100120001F3010F0409802C0409A00C008950E940D
:10013000A7000E949C00FFCF009101020130E1F76F
:100140000E94B7000E948E0010920102F5CF0E941B
:1001500080000E94D4000E94B0000E948700089591
:10016000399A3B983D9A45983F9A47980895439805
:10017000419814E00E94D100419A14E10E94D100FC
:100180004198459A339BFDCF479A222723952223F6
:1001900029F01CE40E94D1003399F8CF209300028B
:1001A00008951A95F1F70895009181000D6000936C
:1001B00081000AEF0093880000E00093890000911D
:1001C0006F00026000936F00789408950F930F9270
:1001D0000FB60F9201E0009301020F900FBE0F9037
:0801E0000F911895F894FFCF70
:0201E80008000D
:00000001FF
