:100000000C9434000C943E000C943E000C943E0082
:100010000C943E000C943E000C943E000C943E0068
:100020000C943E000C943E000C943E000C949800FE
:100030000C943E000C943E000C943E000C943E0048
:100040000C943E000C943E000C943E000C943E0038
:100050000C943E000C943E000C943E000C943E0028
:100060000C943E000C943E0011241FBECFEFD8E04C
:10007000DEBFCDBF0E9457000C94A4000C9400007A
:1000800000E814E000936100109361000895229A43
:100090002A98239A2B98249A2C980895109100015D
:1000A0001A3010F42A9802C02A9A00C008950E94BB
:1000B00065000E945C00FFCF009101010130E1F773
:1000C0000E94750010920101F7CF0E9440000E942B
:1000D00086000E946E000E9447000895559A569827
:1000E000529A5A98539A5B9808955D9812E00E942C
:1000F00083005D9A1AE00E9483005D985A9A5E9B85
:10010000FECF5B9A08951A95F1F70895009181004A
:100110000D60009381000AEF0093880000E00093D7
:10012000890000916F00026000936F007894089539
:100130000F930F920FB60F9201E0009301010F9001
:0C0140000FBE0F900F911895F894FFCFA0
:02014C000800A9
:00000001FF
